:100000000C94FB000C9413010C9413010C94130139
:100010000C9413010C9413010C9413010C94130110
:100020000C9413010C9413010C9413010C94130100
:100030000C9413010C9413010C9413010C941301F0
:100040000C9413010C9413010C9413010C941301E0
:100050000C9413010C9413010C9413010C941301D0
:100060000C9413010C94ED030C9434040C941301C0
:100070000C9413010C9413010C9413010C941301B0
:100080000C9413010C9413010C9413010C941301A0
:100090000C9413010C9413010C9413010C94130190
:1000A0000C9413010C9413010C9413010C94130180
:1000B0000C9413010C9413010C9413010C94130170
:1000C0000C9413010C9413010C9413010C94130160
:1000D0000C9413010C9413010C9413010C94130150
:1000E0000C9413010C9413010C9413010C94130140
:1000F0000C9413010C9413010C9413010C94130130
:100100000C9413010C9413010C9413010C9413011F
:100110000C9413010C9413010C9413010C9413010F
:100120000C9413010C9413010C9413010C941301FF
:100130000C9413010C9413010C9413010C941301EF
:100140000C9413010C9413010C9413010C941301DF
:100150000C9413010C9413010C9413010C941301CF
:100160000C9413010C9413010C9413010C941301BF
:100170000C9413010C9413010C9413010C941301AF
:100180000C9413010C9413010C9413010C9413019F
:100190000C9413010C9413010C9413010C9413018F
:1001A0000C9413010C9413010C9413010C9413017F
:1001B0000C9413010C9413010C9413010C9413016F
:1001C0000C9413010C9413010C9413010C9413015F
:1001D0000C9413010C9413010C9413010C9413014F
:1001E0000C9413010C9413010C9413010C9413013F
:1001F0000C9413010A0011241FBECFEFCDBFDFE323
:10020000DEBF00E00CBF18BE19BE1ABE1BBE21E245
:10021000A0E0B0E201C01D92AC30B207E1F70E944D
:1002200087040C94FE040C940000EF92FF921F933D
:10023000CF93DF937C01EB011881112389F16F5F6C
:100240007F4FFC01E85FFE4FDC01A65FBE4F2081BF
:1002500031814D915C9111972F5F2F772417B9F35E
:10026000208131813327C701820F931F8C579F4F05
:10027000EC0118832F5F3F4F2F7733272083318383
:10028000E70128813981E9018B818C7FE7019A811F
:10029000892BE9018B83EB011991BE011111D7CF95
:1002A000DF91CF911F91FF90EF9008950F931F93CF
:1002B000CF93DF939B012F5F3F4FFB016491662338
:1002C00099F18901DC01A85FBE4FEC01C65FDE4FEA
:1002D0002D913C911197488159812F5F2F772417D9
:1002E000B9F32D913C9111973327AC01420F531F65
:1002F0004C575F4FFA0160832F5F3F4F2F773327B3
:100300002D933C931197FC0140815181FA01238187
:100310002C7FFC013281232BFA012383F8016491A5
:100320000F5F1F4F6111D4CFDF91CF911F910F91BC
:100330000895FC016083718342835383EA5FFE4F1B
:1003400010821182329710821182369610821182A9
:100350003297108211820895FC016283738308959D
:10036000FC01E85FFE4F208131813296408151814E
:100370002F5F2F7781E02413089580E00895FC011A
:10038000E85FFE4FDC01A65FBE4F208131814D91B9
:100390005C9111972F5F2F772417B9F3208131815A
:1003A0003327DC01A20FB31FAC57BF4F6C932F5FF5
:1003B0003F4F2F77332720833183DC01ED91FC9170
:1003C000119723812C7F12969C91822F892B8383F6
:1003D0000895FC01EC5FFE4F4081518132962081EF
:1003E000318181E04213089580E00895FC01EC5FC3
:1003F000FE4F40815181329620813181421781F038
:1004000020813181DC01A20FB31F14968C912081D1
:1004100031812F5F3F4F2F7733272083318308951A
:1004200080E00895CF93DF93FC01EC5FFE4F2081C5
:1004300031812F5F2F77DC01AA5FBE4F4D915C9118
:10044000EC01A881B9813C91241771F04081518160
:10045000DC01A40FB51F14963C9330E02083318358
:1004600081E0DF91CF91089580E0DF91CF910895F1
:10047000CF93DF93DC01A65FBE4F2D913C91119786
:10048000FC01E85FFE4F408151813327421753073B
:10049000B9F0ED91FC911197E80FF91FEC57FF4F60
:1004A0002081EC01E881F98120838D919C91119745
:1004B00001968F7799278D939C93DF91CF91089523
:1004C000DC01ED91FC9183818C7F8383DF91CF915F
:1004D0000895CF92DF92FF920F931F93CF93DF93F4
:1004E0006C0110E180E090E8F601E85FFE4FD60174
:1004F000A65FBE4F31E3F32E00E39C012623372392
:10050000232BA1F0208131814D915C9111972F5FB8
:100510002F772417B9F3208131813327A601420FA9
:10052000531F4C575F4FEA01F88213C0208131817D
:100530004D915C9111972F5F2F772417B9F320818C
:1005400031813327A601420F531F4C575F4FEA01F9
:1005500008832F5F3F4F2F77332720833183E601B6
:1005600048815981EA012B812C7FE6013A81232BB6
:10057000EA012B8396958795115009F0BECFDF9144
:10058000CF911F910F91FF90DF90CF9008954F92E0
:100590005F926F927F92AF92BF92CF92DF92EF9273
:1005A000FF920F931F93CF93DF93CDB7DEB72897BA
:1005B000CDBFDEBF8C01CB01BA0197FD93C06115A1
:1005C00071058105910509F462C0DE0111967D0176
:1005D0006D012AE0422E512C612C712C5601A30191
:1005E00092010E94BD04605DF60161936F01B90143
:1005F000CA01611571058105910581F7AE14BF042B
:10060000A0F1BF01F801E85FFE4F9801265F3E4F61
:100610005901DB01DE90BD0120813181D5014D9171
:100620005C912F5F2F772417B9F3808191819927EF
:100630009801280F391F2C573F4FD901DC920196A2
:100640008F77992780839183D8012D913C91D9018F
:1006500013968C918C7FD80112969C91892BD9018D
:1006600013968C936E157F05A1F62896CDBFDEBF3D
:10067000DF91CF911F910F91FF90EF90DF90CF907E
:10068000BF90AF907F906F905F904F900895F8016A
:10069000E85FFE4F9801265F3E4F590180819181AE
:1006A000D5012D913C918F5F8F778217B9F38081AF
:1006B00091819927D801A80FB91FAC57BF4F20E3EC
:1006C0002C9301968F77992780839183D801ED91A0
:1006D000FC9111978381982F9C7F12968C91892B86
:1006E0008383C3CFF801E85FFE4F9801265F3E4F3A
:1006F000590120813181D5014D915C912F5F2F7778
:100700002417B9F3208131813327D801A20FB31FF9
:10071000AC57BF4F4DE24C932F5F3F4F2F7733279E
:1007200020833183D801ED91FC9111972381322FE1
:100730003C7F12962C91232B238390958095709566
:1007400061957F4F8F4F9F4F40CFE0E4F6E088E008
:100750008583818384E08283A0E0B0E2E0EAF8E070
:10076000ED93FC93119781E090E012968D939C930A
:1007700013971092062110920721109204211092D3
:10078000052110920A2110920B211092082110923B
:10079000092183E0858383818F7C806183838BE45F
:1007A000868380EA878384818061848384818860F2
:1007B0008483E0EAF0E08281816082830895FC0115
:1007C000E85FFE4F4081518132962081318181E086
:1007D0004217530709F080E008951F920F920FB659
:1007E0000F92112408B60F9218BE0BB60F921BBEC3
:1007F0002F933F938F939F93EF93FF938091840662
:1008000090918406807F81509F70892B809384060D
:1008100080910421909105218F5F8F77209106218F
:1008200030910721E0910020F09101209081821702
:1008300061F0E0910421F0910521E050F04E9483A5
:1008400090E08093042190930521FF91EF919F9177
:100850008F913F912F910F900BBE0F9008BE0F907C
:100860000FBE0F901F9018951F920F920FB60F9208
:10087000112408B60F9218BE0BB60F921BBE2F9311
:100880003F938F939F93EF93FF9380918406909172
:1008900084068150806F8093840680910A21909114
:1008A0000B21209108213091092199272817390718
:1008B00031F1E0910A21F0910B21E058FF4D848144
:1008C000E0910020F0910120808380910A21909195
:1008D0000B2101968F77992780930A2190930B2102
:1008E000FF91EF919F918F913F912F910F900BBEB0
:1008F0000F9008BE0F900FBE0F901F901895E091BB
:100900000020F091012083818C7F8383E9CF88E0F0
:10091000809320061092240690E19093410281E09A
:1009200080934002909342028093440210926102AD
:1009300081E8809360020E94A5037894C1E82FE7C4
:100940008AE196E0215080409040E1F700C000002D
:1009500080916302882399F3609150027091510253
:10096000C093600280E090E20E94690264EF71E04F
:1009700080E090E20E945601E2CF052E97FB1EF424
:1009800000940E94D40457FD07D00E94DC0407FCA9
:1009900003D04EF40C94D404509540953095219595
:1009A0003F4F4F4F5F4F089590958095709561959B
:1009B0007F4F8F4F9F4F0895A1E21A2EAA1BBB1B9A
:1009C000FD010DC0AA1FBB1FEE1FFF1FA217B3071B
:1009D000E407F50720F0A21BB30BE40BF50B661F31
:1009E000771F881F991F1A9469F7609570958095F5
:1009F00090959B01AC01BD01CF010895F894FFCF04
:00000001FF
